:1000000002308A00002A00000A108A100A118207B2
:10001000313432343334343435343634373438349C
:1000200039342A3430342334C133F232E730721099
:100030004100C133F232E73072104200D3376E1004
:10004000E933F530EC3273004110E539A036E13C7C
:100050006F3900016210E539A036E13C6F390001CB
:10006000C6346E10E4326C107039EF31E5396F0030
:100070002F3084008313000803194B280630F80042
:10008000F701F70B4128F80B40287B30F700F70BFE
:100090004728800B3E280800350EF039F7000F3056
:1000A000080577048800000008140330F700F70BF8
:1000B0005728081008000808F700080E0F39F80044
:1000C00008008316081088100811831288100F305A
:1000D00083160805F03888008312081500000814FC
:1000E00000005B207808B50008100000081478288C
:1000F000792800005B207808B40008100F308316C0
:10010000080588008312350EF700F030F7057708F0
:100110003404F8007808B400B41B6728321C881037
:10012000321888140000081100000810330EB400C3
:100130000F30B4053408B5004C2033080F39B40033
:10014000B5004C2008002830AB000C30AC0001306A
:10015000AD000630AE000810881008110F3083166D
:10016000080588000810881008110F308312AF00AE
:1001700038200130AA002A08033C031CC72803309A
:10018000B5004C200530AF003820AA0ABB28023049
:10019000B5004C200530AF003820AA012A08033CE6
:1001A000031CDE282B302A07840083130008AF00CD
:1001B000B2012F08B3006120AA0ACE288A110A12C0
:1001C000192A8A110A121A2A2F0BE728EA28403026
:1001D000B000EB28B00101302E02B00730088038A3
:1001E000B100B2013108B300612008002D08073AC0
:1001F000031904290B3A03190929063A031911298D
:10020000023A031917291C290130AE00AF00E4207F
:100210002129B2010130B30061200230AF00382043
:1002200021290130AE000230AF00E4202129B201C3
:100230001030B300612021290130B2002D08B30035
:10024000612008000B08AA008B13831603178C1774
:100250000C140000000083120313AA1B8B17031752
:100260000C087F39031976290313AA0003170D0818
:100270000313AB0003170F080313AC002A08AD00EB
:10028000F6202B0803178D0003132C0803178F008B
:1002900003130B08AD008B13831603178C170C1474
:1002A0000000000083120313AD1B8B1703170C0D06
:1002B0000E0D7F39031976290313AA0003170D08C1
:1002C0000313AB0003170F080313AC002A08AD009B
:1002D000F6202B0803178D0003132C0803178F003B
:1002E0008D0A03198F0A0313222903170313080029
:1002F000AA01A00A2008213C0318F92923080319A0
:100300008829013A03198E29033A03199429992956
:10031000DE3083168600831286009929BE3083164C
:1003200086008312860099297E3083168600831208
:100330008600211CA52906081E391E3C031DA42980
:1003400021102208AA00A201F82906081E391E3C25
:100350000319F32906080239031DB029AB01C4298A
:1003600006080439031DB7290130AB00C42906086B
:100370000839031DBE290230AB00C4290608103914
:10038000031DC4290330AB002B08AC000330AD00C3
:10039000F701F8012C0803102D18F707F70CF80CDB
:1003A000AD18F707F70CF80C2D19F707F70CF80C38
:1003B000AD19F707F70CF80C2D1AF707F70CF80C26
:1003C000AD1AF707F70CF80C2D1BF707F70CF80C14
:1003D000AD1BF707F70CF80C230878070420F8008A
:1003E000A2002114F829A30A2308033C0319A3013E
:1003F000A001FE308316860083122A08F800080048
:1004000003081F398300A501A401FF30A60083164D
:100410001F149F141F159F1107309C008313831214
:10042000A0012110A201A301A90183168113831247
:10043000A328E1282908013C031CAE2AA701A80132
:100440000130AE00AF00E420143003178D000030FF
:100450008F0003132221A708031D4D2A0130AE008F
:100460000230AF00E42078217808A700A70803191C
:100470004C2A6130AD00F6203A30AD00F620203035
:10048000AD00F6202708AD00F620C830AF003820B8
:10049000A90A0C30AD00F6202B2A0130AE00AF00C7
:1004A000E420193003178D0000308F000313222140
:1004B000A808031D7A2A0130AE000230AF00E42004
:1004C00078217808A800A8080319792A6230AD00BD
:1004D000F6203A30AD00F6202030AD00F620280896
:1004E000AD00F620C830AF003820A90A0C30AD00AE
:1004F000F620582A28082702031D8B2A26102608D2
:1005000083168700831207141E3003178D000030F6
:100510008F00031322212708280203189C2AA61003
:1005200026088316870083128714243003178D0052
:1005300000308F0003132221280827020318AD2A58
:100540002611260883168700831207152A30031701
:100550008D0000308F00031322211A2A0130AE00D3
:100560000230AF00E420303003178D0000308F00E0
:06057000031322216300C9
:02400E00723FFF
:00000001FF
;PIC16F877A
;CRC=8814  CREATED="04-Jul-21 13:35"
